{
  "contractName": "MultiSig",
  "abi": [
    {
      "inputs": [
        {
          "internalType": "address[]",
          "name": "_approvers",
          "type": "address[]"
        },
        {
          "internalType": "uint256",
          "name": "_quorum",
          "type": "uint256"
        }
      ],
      "payable": true,
      "stateMutability": "payable",
      "type": "constructor"
    },
    {
      "constant": true,
      "inputs": [
        {
          "internalType": "uint256",
          "name": "",
          "type": "uint256"
        }
      ],
      "name": "approvers",
      "outputs": [
        {
          "internalType": "address",
          "name": "",
          "type": "address"
        }
      ],
      "payable": false,
      "stateMutability": "view",
      "type": "function"
    },
    {
      "constant": true,
      "inputs": [],
      "name": "quorum",
      "outputs": [
        {
          "internalType": "uint256",
          "name": "",
          "type": "uint256"
        }
      ],
      "payable": false,
      "stateMutability": "view",
      "type": "function"
    },
    {
      "constant": false,
      "inputs": [
        {
          "internalType": "uint256",
          "name": "amount",
          "type": "uint256"
        },
        {
          "internalType": "address payable",
          "name": "to",
          "type": "address"
        }
      ],
      "name": "createTransfer",
      "outputs": [],
      "payable": false,
      "stateMutability": "nonpayable",
      "type": "function"
    },
    {
      "constant": false,
      "inputs": [
        {
          "internalType": "uint256",
          "name": "id",
          "type": "uint256"
        }
      ],
      "name": "sendTransfer",
      "outputs": [],
      "payable": false,
      "stateMutability": "nonpayable",
      "type": "function"
    }
  ],
  "bytecode": "0x608060405260405161093a38038061093a8339818101604052604081101561002657600080fd5b810190808051604051939291908464010000000082111561004657600080fd5b8382019150602082018581111561005c57600080fd5b825186602082028301116401000000008211171561007957600080fd5b8083526020830192505050908051906020019060200280838360005b838110156100b0578082015181840152602081019050610095565b505050509050016040526020018051906020019092919050505081600090805190602001906100e09291906100ef565b508060018190555050506101bc565b828054828255906000526020600020908101928215610168579160200282015b828111156101675782518260006101000a81548173ffffffffffffffffffffffffffffffffffffffff021916908373ffffffffffffffffffffffffffffffffffffffff1602179055509160200191906001019061010f565b5b5090506101759190610179565b5090565b6101b991905b808211156101b557600081816101000a81549073ffffffffffffffffffffffffffffffffffffffff02191690555060010161017f565b5090565b90565b61076f806101cb6000396000f3fe608060405234801561001057600080fd5b506004361061004c5760003560e01c80631703a018146100515780634c12fa471461006f578063d1c68d1e146100bd578063d3650fb8146100eb575b600080fd5b610059610159565b6040518082815260200191505060405180910390f35b6100bb6004803603604081101561008557600080fd5b8101908080359060200190929190803573ffffffffffffffffffffffffffffffffffffffff16906020019092919050505061015f565b005b6100e9600480360360208110156100d357600080fd5b8101908080359060200190929190505050610363565b005b6101176004803603602081101561010157600080fd5b81019080803590602001909291905050506106fe565b604051808273ffffffffffffffffffffffffffffffffffffffff1673ffffffffffffffffffffffffffffffffffffffff16815260200191505060405180910390f35b60015481565b600080905060005b6000805490508110156101f1573373ffffffffffffffffffffffffffffffffffffffff166000828154811061019857fe5b9060005260206000200160009054906101000a900473ffffffffffffffffffffffffffffffffffffffff1673ffffffffffffffffffffffffffffffffffffffff1614156101e457600191505b8080600101915050610167565b50600115158115151461026c576040517f08c379a00000000000000000000000000000000000000000000000000000000081526004018080602001828103825260158152602001807f6f6e6c7920617070726f76657220616c6c6f776564000000000000000000000081525060200191505060405180910390fd5b6040518060a0016040528060035481526020018481526020018373ffffffffffffffffffffffffffffffffffffffff1681526020016000815260200160001515815250600260006003548152602001908152602001600020600082015181600001556020820151816001015560408201518160020160006101000a81548173ffffffffffffffffffffffffffffffffffffffff021916908373ffffffffffffffffffffffffffffffffffffffff1602179055506060820151816003015560808201518160040160006101000a81548160ff021916908315150217905550905050600360008154809291906001019190505550505050565b600080905060005b6000805490508110156103f5573373ffffffffffffffffffffffffffffffffffffffff166000828154811061039c57fe5b9060005260206000200160009054906101000a900473ffffffffffffffffffffffffffffffffffffffff1673ffffffffffffffffffffffffffffffffffffffff1614156103e857600191505b808060010191505061036b565b506001151581151514610470576040517f08c379a00000000000000000000000000000000000000000000000000000000081526004018080602001828103825260158152602001807f6f6e6c7920617070726f76657220616c6c6f776564000000000000000000000081525060200191505060405180910390fd5b600015156002600084815260200190815260200160002060040160009054906101000a900460ff1615151461050d576040517f08c379a000000000000000000000000000000000000000000000000000000000815260040180806020018281038252601e8152602001807f7472616e736665722068617320616c7265616479206265656e2073656e74000081525060200191505060405180910390fd5b6001546002600084815260200190815260200160002060030154106105ff5760016002600084815260200190815260200160002060040160006101000a81548160ff02191690831515021790555060006002600084815260200190815260200160002060020160009054906101000a900473ffffffffffffffffffffffffffffffffffffffff1690506000600260008581526020019081526020016000206001015490508173ffffffffffffffffffffffffffffffffffffffff166108fc829081150290604051600060405180830381858888f193505050501580156105f7573d6000803e3d6000fd5b5050506106fa565b60001515600460003373ffffffffffffffffffffffffffffffffffffffff1673ffffffffffffffffffffffffffffffffffffffff168152602001908152602001600020600084815260200190815260200160002060009054906101000a900460ff16151514156106f9576001600460003373ffffffffffffffffffffffffffffffffffffffff1673ffffffffffffffffffffffffffffffffffffffff168152602001908152602001600020600084815260200190815260200160002060006101000a81548160ff02191690831515021790555060026000838152602001908152602001600020600301600081548092919060010191905055505b5b5050565b6000818154811061070b57fe5b906000526020600020016000915054906101000a900473ffffffffffffffffffffffffffffffffffffffff168156fea265627a7a72315820892128955767a06a212e2477dc06fbff21c9aa2a9ff7769b128e12575ed36d1064736f6c63430005100032",
  "source": "pragma solidity ^0.5.2;\r\n\r\ncontract MultiSig {\r\n  address[] public approvers;\r\n  uint public quorum;\r\n  struct Transfer {\r\n    uint id;\r\n    uint amount;\r\n    address payable to;\r\n    uint approvals;\r\n    bool sent;\r\n  }\r\n  mapping(uint => Transfer) transfers;\r\n  uint nextId;\r\n  mapping(address => mapping(uint => bool)) approvals;\r\n\r\n  constructor(address[] memory _approvers, uint _quorum) payable public {\r\n    approvers = _approvers;\r\n    quorum = _quorum;\r\n  }\r\n\r\n  function createTransfer(uint amount, address payable to) onlyApprover() external {\r\n    transfers[nextId] = Transfer(\r\n      nextId,\r\n      amount,\r\n      to,\r\n      0,\r\n      false\r\n    );\r\n    nextId++;\r\n  }\r\n\r\n  function sendTransfer(uint id) onlyApprover() external {\r\n    require(transfers[id].sent == false, 'transfer has already been sent');\r\n    if(transfers[id].approvals >= quorum) {\r\n      transfers[id].sent = true;\r\n      address payable to = transfers[id].to;\r\n      uint amount = transfers[id].amount;\r\n      to.transfer(amount);\r\n      return;\r\n    }\r\n    //BUG: put this BEFORE if(transfers[id].approvals >= quorum)\r\n    if(approvals[msg.sender][id] == false) {\r\n      approvals[msg.sender][id] = true;\r\n      transfers[id].approvals++;\r\n    }\r\n  }\r\n\r\n  modifier onlyApprover() {\r\n    bool allowed = false;\r\n    for(uint i; i < approvers.length; i++) {\r\n      if(approvers[i] == msg.sender) {\r\n        allowed = true;\r\n      }\r\n    }\r\n    require(allowed == true, 'only approver allowed');\r\n    _;\r\n  }\r\n}",
  "sourcePath": "C:/Users/jeffrey/MultiSig/contracts/MultiSig.sol",
  "compiler": {
    "name": "solc",
    "version": "0.5.16+commit.9c3226ce.Emscripten.clang"
  },
  "schemaVersion": "3.3.3",
  "updatedAt": "2021-02-20T02:39:34.635Z",
  "networkType": "ethereum",
  "devdoc": {
    "methods": {}
  },
  "userdoc": {
    "methods": {}
  }
}