{
  "contractName": "MultiSig",
  "abi": [
    {
      "inputs": [
        {
          "internalType": "address[]",
          "name": "_approvers",
          "type": "address[]"
        },
        {
          "internalType": "uint256",
          "name": "_quorum",
          "type": "uint256"
        }
      ],
      "payable": true,
      "stateMutability": "payable",
      "type": "constructor"
    },
    {
      "constant": true,
      "inputs": [
        {
          "internalType": "uint256",
          "name": "",
          "type": "uint256"
        }
      ],
      "name": "approvers",
      "outputs": [
        {
          "internalType": "address",
          "name": "",
          "type": "address"
        }
      ],
      "payable": false,
      "stateMutability": "view",
      "type": "function"
    },
    {
      "constant": true,
      "inputs": [],
      "name": "quorum",
      "outputs": [
        {
          "internalType": "uint256",
          "name": "",
          "type": "uint256"
        }
      ],
      "payable": false,
      "stateMutability": "view",
      "type": "function"
    },
    {
      "constant": true,
      "inputs": [
        {
          "internalType": "uint256",
          "name": "",
          "type": "uint256"
        }
      ],
      "name": "transfers",
      "outputs": [
        {
          "internalType": "uint256",
          "name": "id",
          "type": "uint256"
        },
        {
          "internalType": "uint256",
          "name": "amount",
          "type": "uint256"
        },
        {
          "internalType": "address payable",
          "name": "to",
          "type": "address"
        },
        {
          "internalType": "uint256",
          "name": "approvals",
          "type": "uint256"
        },
        {
          "internalType": "bool",
          "name": "sent",
          "type": "bool"
        }
      ],
      "payable": false,
      "stateMutability": "view",
      "type": "function"
    },
    {
      "constant": false,
      "inputs": [
        {
          "internalType": "uint256",
          "name": "amount",
          "type": "uint256"
        },
        {
          "internalType": "address payable",
          "name": "to",
          "type": "address"
        }
      ],
      "name": "createTransfer",
      "outputs": [],
      "payable": false,
      "stateMutability": "nonpayable",
      "type": "function"
    },
    {
      "constant": false,
      "inputs": [
        {
          "internalType": "uint256",
          "name": "id",
          "type": "uint256"
        }
      ],
      "name": "sendTransfer",
      "outputs": [],
      "payable": false,
      "stateMutability": "nonpayable",
      "type": "function"
    }
  ],
  "bytecode": "0x60806040526040516107b53803806107b58339818101604052604081101561002657600080fd5b810190808051604051939291908464010000000082111561004657600080fd5b8382019150602082018581111561005c57600080fd5b825186602082028301116401000000008211171561007957600080fd5b8083526020830192505050908051906020019060200280838360005b838110156100b0578082015181840152602081019050610095565b505050509050016040526020018051906020019092919050505081600090805190602001906100e09291906100ef565b508060018190555050506101bc565b828054828255906000526020600020908101928215610168579160200282015b828111156101675782518260006101000a81548173ffffffffffffffffffffffffffffffffffffffff021916908373ffffffffffffffffffffffffffffffffffffffff1602179055509160200191906001019061010f565b5b5090506101759190610179565b5090565b6101b991905b808211156101b557600081816101000a81549073ffffffffffffffffffffffffffffffffffffffff02191690555060010161017f565b5090565b90565b6105ea806101cb6000396000f3fe608060405234801561001057600080fd5b50600436106100575760003560e01c80631703a0181461005c5780634c12fa471461007a5780639377d711146100c8578063d1c68d1e14610156578063d3650fb814610184575b600080fd5b6100646101f2565b6040518082815260200191505060405180910390f35b6100c66004803603604081101561009057600080fd5b8101908080359060200190929190803573ffffffffffffffffffffffffffffffffffffffff1690602001909291905050506101f8565b005b6100f4600480360360208110156100de57600080fd5b81019080803590602001909291905050506102ee565b604051808681526020018581526020018473ffffffffffffffffffffffffffffffffffffffff1673ffffffffffffffffffffffffffffffffffffffff168152602001838152602001821515151581526020019550505050505060405180910390f35b6101826004803603602081101561016c57600080fd5b8101908080359060200190929190505050610351565b005b6101b06004803603602081101561019a57600080fd5b8101908080359060200190929190505050610579565b604051808273ffffffffffffffffffffffffffffffffffffffff1673ffffffffffffffffffffffffffffffffffffffff16815260200191505060405180910390f35b60015481565b6040518060a0016040528060035481526020018381526020018273ffffffffffffffffffffffffffffffffffffffff1681526020016000815260200160001515815250600260006003548152602001908152602001600020600082015181600001556020820151816001015560408201518160020160006101000a81548173ffffffffffffffffffffffffffffffffffffffff021916908373ffffffffffffffffffffffffffffffffffffffff1602179055506060820151816003015560808201518160040160006101000a81548160ff0219169083151502179055509050506003600081548092919060010191905055505050565b60026020528060005260406000206000915090508060000154908060010154908060020160009054906101000a900473ffffffffffffffffffffffffffffffffffffffff16908060030154908060040160009054906101000a900460ff16905085565b6000156002600083815260200190815260200160002060040160006101000a81548160ff02191690831515021790556103f2576040517f08c379a000000000000000000000000000000000000000000000000000000000815260040180806020018281038252601e8152602001807f5472616e736665722068617320616c7265616479206265656e2073656e74000081525060200191505060405180910390fd5b6001546002600083815260200190815260200160002060030154106104e45760016002600083815260200190815260200160002060040160006101000a81548160ff02191690831515021790555060006002600083815260200190815260200160002060020160009054906101000a900473ffffffffffffffffffffffffffffffffffffffff1690506000600260008481526020019081526020016000206001015490508173ffffffffffffffffffffffffffffffffffffffff166108fc829081150290604051600060405180830381858888f193505050501580156104dc573d6000803e3d6000fd5b505050610576565b60001515600460003373ffffffffffffffffffffffffffffffffffffffff1673ffffffffffffffffffffffffffffffffffffffff168152602001908152602001600020600083815260200190815260200160002060009054906101000a900460ff16151514156105755760026000828152602001908152602001600020600301600081548092919060010191905055505b5b50565b6000818154811061058657fe5b906000526020600020016000915054906101000a900473ffffffffffffffffffffffffffffffffffffffff168156fea265627a7a72315820d2e8b71c1ede373ada1c62111c5265e87c65b38db2ea6659de632aae5c38e7e264736f6c63430005100032",
  "source": "pragma solidity ^0.5.2;\r\n\r\ncontract MultiSig{\r\n\r\n    address[]public approvers;\r\n    uint public quorum;\r\n\r\n    struct Transfer{\r\n        uint id;\r\n        uint amount;\r\n        address payable to;\r\n        uint approvals;\r\n        bool sent;\r\n\r\n    }\r\n\r\n    mapping(uint=>Transfer)public transfers;\r\n    uint nextId;\r\n    mapping(address=>mapping(uint=>bool))approvals;\r\n\r\n   \r\n    constructor(address[] memory _approvers, uint _quorum)payable public{\r\n        approvers= _approvers;\r\n        quorum= _quorum;\r\n\r\n    }\r\n\r\n    function createTransfer(uint amount, address payable to)external{\r\n       transfers[nextId]= Transfer(nextId,amount,to,0, false);\r\n       nextId++;\r\n\r\n    }\r\n\r\n    function sendTransfer(uint id)external{\r\n        require(transfers[id].sent=! false,'Transfer has already been sent');\r\n        if(transfers[id].approvals >= quorum){\r\n            transfers[id].sent= true;\r\n            address payable to= transfers[id].to;\r\n            uint amount= transfers[id].amount;\r\n            to.transfer(amount);\r\n            return;\r\n\r\n        }\r\n\r\n        if(approvals[msg.sender][id] == false){\r\n        transfers[id].approvals++;\r\n\r\n        }\r\n\r\n    }\r\n\r\n}",
  "sourcePath": "C:/Users/jeffrey/MultiSig/contracts/MultiSig.sol",
  "compiler": {
    "name": "solc",
    "version": "0.5.16+commit.9c3226ce.Emscripten.clang"
  },
  "schemaVersion": "3.3.3",
  "updatedAt": "2021-02-20T01:11:30.914Z",
  "networkType": "ethereum",
  "devdoc": {
    "methods": {}
  },
  "userdoc": {
    "methods": {}
  }
}